:020000040800F2
:1000000000200020250C00081D0300081F03000825
:1000100000000000000000000000000000000000E0
:1000200000000000000000000000000021030008A4
:100030000000000000000000230300082503000862
:10004000750C0008750C0008750C0008750C00088C
:10005000750C0008750C0008750C0008750C00087C
:10006000750C0008750C0008750C0008750C00086C
:10007000750C0008750C0008750C0008750C00085C
:10008000750C0008750C000800000000750C0008D5
:10009000750C0008750C0008750C0008750C00083C
:1000A000750C0008750C0008750C0008750C00082C
:1000B000750C000800000000750C0008000000002E
:1000C000002243088B4274D303098B425FD3030A97
:1000D0008B4244D3030B8B4228D3030C8B420DD3AA
:1000E000FF22090212BA030C8B4202D31212090238
:1000F00065D0030B8B4219D300E0090AC30B8B4276
:1001000001D3CB03C01A5241830B8B4201D38B0323
:10011000C01A5241430B8B4201D34B03C01A5241C8
:10012000030B8B4201D30B03C01A5241C30A8B420B
:1001300001D3CB02C01A5241830A8B4201D38B02F6
:10014000C01A5241430A8B4201D34B02C01A52419A
:10015000030A8B4201D30B02C01A5241CDD2C3090C
:100160008B4201D3CB01C01A524183098B4201D388
:100170008B01C01A524143098B4201D34B01C01A73
:10018000524103098B4201D30B01C01A5241C308EB
:100190008B4201D3CB00C01A524183088B4201D35A
:1001A0008B00C01A524143088B4201D34B00C01A46
:1001B0005241411A00D20146524110467047FFE7B2
:1001C00001B5002000F006F802BDC0460029F7D0B6
:1001D00076E770477047C04610B5064C2378002B71
:1001E00007D1054B002B02D0044800E000BF0123DB
:1001F000237010BD0C00002000000000D00C00088F
:10020000044B10B5002B03D00349044800E000BFA5
:1002100010BDC0460000000010000020D00C0008F7
:1002200010B588B01422002103A800F024FD134B60
:100230005A698021C9030A435A615A690A400192E6
:10024000019A5A698021C9020A435A615B690B40CD
:100250000293029B0A4C0022FF21200000F0CAF901
:10026000FF230393FE3B049300230593069303A906
:10027000200000F0FBF808B010BDC046001002409E
:100280000004004872B6FEE700B591B030220021AC
:1002900004A800F0F0FC10220021684600F0EBFCFE
:1002A00002230493013B07930F33089304A800F043
:1002B000A7F900280DD1072300930023019302938F
:1002C00003930021684600F013FC002803D111B00D
:1002D00000BDFFF7D7FFFFF7D5FF10B500F050F8CE
:1002E000FFF7D2FFFFF79CFFFEE7000082B00A4B4A
:1002F000996901221143996199690A400092009A13
:10030000DA69802149050A43DA61DB690B40019310
:10031000019B02B07047C04600100240FEE7FEE7B6
:100320007047704710B500F03BF810BD70470000F3
:1003300010B504000F4B1978FA208000FFF7C0FEBB
:1003400001000D4B1868FFF7BBFE00F08BF800288A
:100350000DD1032C01D901200AE001300022210037
:10036000404200F07BF8054B1C60002000E00120BB
:1003700010BDC0460400002000000020080000203E
:1003800010B5064A136810210B4313600320FFF7D2
:10039000CFFFFFF7ABFF002010BDC046002002409A
:1003A000034A1168034B1B785B1813607047C04603
:1003B0002800002004000020014B18687047C04648
:1003C0002800002070B5002811DB8308134DC033CE
:1003D0009B005C5903221040C000FC32160086408E
:1003E000B44389010A40824022435A5170BD0F2311
:1003F0000340083B9B0806339B00094A944663442C
:100400005C6803221040C000FC3215008540AC43FC
:1004100089010A40824022435A60E7E700E100E098
:1004200000ED00E0013880235B0498420FD2094AB6
:1004300050600948036A1B021B0AC02109060B43CE
:10044000036200239360073313600020704701208C
:10045000FCE7C04610E000E000ED00E010B5FFF75B
:10046000B1FF10BD10B5FFF7DDFF10BDF0B583B0D3
:10047000002356E086685F000324BC40A643CC6896
:10048000BC4034438460446894434E68360901227A
:1004900032409A402243426053E0DE080836B600FC
:1004A000375805321A4092000F249440A7430C6934
:1004B000944022003A43325056E0032600E00026E2
:1004C000A64034003C4302329200444E9451444AC8
:1004D0009768EA433E00AE434C68E40201D53E0013
:1004E0002E433F4CA660E7683E0016404C68A402CD
:1004F00001D53E002E433A4CE66067683E00164048
:100500004C68A40301D53E002E43354C6660266836
:1005100032404C68E40301D52A003243304C22605B
:1005200001330C682200DA4056D001229A4025009F
:1005300015401442F4D04E6803243440013C012C91
:1005400098D94C6803222240032A08D0C4685E0070
:100550000322B24094438A68B2402243C2604C688E
:1005600003222240022A98D004685E00032217006A
:10057000B740BC434F683A40B240224302604C68E7
:10058000C02292021442CBD0164CA6690122164317
:10059000A661A46922400192019A9A08941CA400C1
:1005A0000E4EA75903241C40A4000F26A640B743B3
:1005B0009026F605B04282D00B4EB04208D00B4ECA
:1005C000B04207D00A4EB04200D176E7052677E761
:1005D000012675E7022673E703B0F0BD0000014075
:1005E00000040140001002400004004800080048D8
:1005F000000C0048002A01D0816170478162FCE74D
:1006000070B582B0041E00D12EE20368DB0726D548
:10061000AE4B5A680C231340042B18D0AB4B5A68CE
:100620000C231340082B0ED06368012B3CD0002B09
:1006300051D1A64B1A68A6490A401A601A68A54902
:100640000A401A6036E0A14B5B68DB03ECD59F4B98
:100650001B689B0303D56368002B00D107E2236866
:100660009B0772D5994B5B680C221A425DD0974B61
:100670005A680C231340082B53D0E368002B00D199
:1006800085E0924A136801210B431360FFF794FE43
:1006900005008E4B1B689B0770D4FFF78DFE401B37
:1006A0000228F6D90320E0E1884A116880235B0222
:1006B0000B4313606368002B25D0FFF77DFE050018
:1006C000824B1B689B03CAD4FFF776FE401B64284D
:1006D000F6D90320C9E1052B09D07C4B1A687C4967
:1006E0000A401A601A687B490A401A60E2E7774BB1
:1006F00019688022D2020A431A60196880225202C5
:100700000A431A60D6E7FFF757FE05006F4B1B68D8
:100710009B03A4D5FFF750FE401B6428F6D90320A5
:10072000A3E16A4B5B68DB03A7D4684B1B689B079C
:1007300003D5E368012B00D09BE164490B68F822E4
:1007400093432269D20013430B6023681B0744D5EF
:10075000E369002B2ED05D4A536A01210B4353629B
:10076000FFF72AFE0500594B5B6A9B0735D4FFF75C
:1007700023FE401B0228F6D9032076E153490B687B
:10078000F82293432269D20013430B60DDE74F4AFE
:10079000136801218B431360FFF70EFE05004B4BDE
:1007A0001B689B07D1D5FFF707FE401B0228F6D92F
:1007B00003205AE1454A536A01218B435362FFF7F4
:1007C000FBFD0500414B5B6A9B0706D5FFF7F4FD77
:1007D000401B0228F6D9032047E123685B0700D4B9
:1007E00080E03A4BDB69DB001DD4384BDA698021AD
:1007F00049050A43DA61DB690B400193019B01253E
:10080000354B1B68DB0510D5A368012B21D0002BCD
:1008100036D12E4B1A6A01218A431A621A6A0331B1
:100820008A431A621AE00025EAE72B4A11688023FE
:100830005B000B431360FFF7BFFD0600264B1B68F0
:10084000DB05E1D4FFF7B8FD801B6428F6D903204F
:100850000BE11E4A136A01210B431362A368002BAC
:1008600024D0FFF7A9FD0600184B1B6A9B0737D45D
:10087000FFF7A2FD801B194B9842F5D90320F4E045
:10088000052B09D0114B1A6A01218A431A621A6A90
:1008900003318A431A62E1E70C4B1A6A04210A43C6
:1008A0001A621A6A03390A431A62D7E7FFF784FD0E
:1008B0000600064B1B6A9B0712D5FFF77DFD801BC8
:1008C000064B9842F5D90320CFE0C0460010024005
:1008D000FFFFFEFFFFFFFBFF0070004088130000DA
:1008E000012D33D02368DB0610D56369012B33D08B
:1008F000053351D1654A536B04218B435363536BCA
:10090000F4318B43A169C9000B435363236A002B65
:1009100000D1B0E05D4A51680C220A40082A00D19B
:100920008AE0022B4FD0594A136859490B40136093
:10093000FFF742FD0400554B1B689B017AD5FFF77A
:100940003BFD001B0228F6D903208EE04F4AD369F5
:1009500050490B40D361C5E74C4B5A6B04210A4305
:100960005A635A6B03390A435A63FFF725FD0500A2
:10097000464B5B6B9B0706D4FFF71EFD401B02280E
:10098000F6D9032071E041494B6BF8229343A269E9
:10099000D20013434B63B9E73C4B5A6B04210A4323
:1009A0005A635A6B03398A435A63FFF705FD050002
:1009B000364B5B6B9B07A9D5FFF7FEFC401B02285B
:1009C000F6D9032051E0314A136831490B401360D6
:1009D000FFF7F2FC05002D4B1B689B0106D5FFF7C6
:1009E000EBFC401B0228F6D903203EE0274BDA6AD5
:1009F0000F218A43E16A0A43DA625A6826490A40AB
:100A0000A16A606A01430A435A601968802252044D
:100A10000A431A60FFF7D0FC04001C4B1B689B01C3
:100A200006D4FFF7C9FC001B0228F6D903201CE0FE
:100A300000201AE0002018E0012B1ED0134B5A684A
:100A4000D86A80235B021340616A8B4217D10F235F
:100A50000340E16A8B4214D1F0239B031A40A36A3E
:100A60009A4210D1002000E0012002B070BD0120A8
:100A7000FBE70120F9E70020F7E70120F5E7012077
:100A8000F3E70120F1E70120EFE7C0460010024044
:100A9000FFFFFFFEFFFFFFEFFFFFC2FF10B5104B90
:100AA0005A680C231340082B01D00E4810BD910C3E
:100AB000073319400C48445C0949C96A0B400B498B
:100AC000C95CD20304D50748FFF7FAFA6043EDE7A3
:100AD0006201121B93019B1ADB001B191802E5E748
:100AE0000010024000127A00080D0008F80C0008FF
:100AF00070B504000D00002800D17EE0434B1A6859
:100B0000012313408B420AD240490B6801229343D0
:100B10002B430B600B681A40AA4200D06FE0236899
:100B20009A070ED55B0705D5394A5168E023DB00EB
:100B30000B435360364A5368F0218B43A1680B4343
:100B400053602368DB072DD56368012B1ED0022B71
:100B500022D02F4A1268920753D52D494A680320A4
:100B6000824313434B60FFF727FC0600284B5B686A
:100B70000C221A4063689B009A4213D0FFF71CFCBA
:100B8000801B244B9842F1D9032035E0204A12689B
:100B90009203E2D401202FE01D4A12689201DCD4B6
:100BA000012029E0194B1A6801231340AB4209D9EF
:100BB00016490B68012293432B430B600B681A40C4
:100BC000AA4220D123685B0706D5114A536812490F
:100BD0000B40E1680B435360FFF760FF0C4B5A6812
:100BE00012090F2313400D4AD35CD8400C4B1860F8
:100BF0000320FFF79DFB002070BD0120FCE70120D2
:100C0000FAE70120F8E70120F6E7C046002002409D
:100C10000010024088130000FFF8FFFFE80C0008F6
:100C2000000000200D488546FFF780FB0C480D4969
:100C30000D4A002302E0D458C4500433C4188C4237
:100C4000F9D30A4A0A4C002301E013600432A2429D
:100C5000FBD300F019F8FFF740FBFEE7002000206F
:100C6000000000200C000020200D00080C000020D7
:100C70002C000020FEE703008218934200D1704749
:100C800019700133F9E7000070B500260C4C0D4DCA
:100C9000641BA410A64209D1002600F019F80A4CE2
:100CA0000A4D641BA410A64205D170BDB300EB58D9
:100CB00098470136EEE7B300EB5898470136F2E764
:100CC000180D0008180D00081C0D0008180D00086C
:100CD000F8B5C046F8BC08BC9E467047F8B5C0469B
:080CE000F8BC08BC9E467047F9
:100CE80000000000000000000102030406070809D4
:100CF8000102030405060708090A0B0C0D0E0F1064
:100D080002030405060708090A0B0C0D0E0F101044
:040D180001020008CC
:040D1C00D9010008F1
:0C0D200000127A00010000000400000036
:0400000508000C25BE
:00000001FF
